:020000040800F2
:10000000F8040020B11D0008FD1C0008FF1C0008BA
:10001000011D0008031D0008051D00080000000068
:10002000000000000000000000000000071D0008A4
:10003000091D0008000000000B1D00080D1D000830
:10004000E51D0008E91D0008ED1D0008F11D000870
:10005000F51D0008F91D0008FD1D0008011E00081F
:10006000051E0008091E00080D1E0008111E0008CC
:10007000151E0008191E00081D1E0008211E00087C
:10008000251E0008291E00082D1E0008311E00082C
:10009000351E0008391E00083D1E0008411E0008DC
:1000A000451E0008491E00080F1D00084D1E0008CF
:1000B000511E0008551E0008591E00085D1E00084C
:1000C000611E0008651E0008691E00086D1E0008FC
:1000D000711E0008751E0008791E00087D1E0008AC
:1000E000191D0008811E0008851E0008891E0008D1
:1000F0008D1E0008911E0008951E0008991E00081C
:100100009D1E0008A11E0008A51E0008A91E0008CB
:10011000AD1E0008B11E0008B51E0008B91E00087B
:10012000BD1E0008C11E0008C51E0008C91E00082B
:10013000CD1E0008D11E0008D51E0008D91E0008DB
:10014000DD1E0008E11E0008E51E0008E91E00088B
:10015000ED1E0008F11E0008F51E0008F91E00083B
:10016000FD1E0008011F0008051F0008091F0008E8
:100170000D1F0008111F0008000000000000000013
:10018000151F0008191F000838B5040001D101200F
:1001900032BD00F007F918B900F000F900F0B2FC28
:1001A0003CE090F83D10012901D001207047022168
:1001B00080F83D100168CA6842F00102CA60016817
:1001C000DFF8AC01814218BFB1F1804F12D0DFF8E7
:1001D000A40181421CBFDFF8A02191420AD0DFF8C0
:1001E0009C0181421FBFDFF898219142DFF8940102
:1001F00081420DD18A68DFF898010240062A18BFB3
:10020000B2F5803F08D0086840F00100086003E0C4
:100210000A6842F001020A600020704702206870FC
:10022000211D206800F058FA01202873A870E8709A
:1002300028716871A871E87128726872A872E872F2
:100240006870002032BD38B5040001D1012032BDF4
:1002500000F0A8F818B900F0A1F800F0B5FCDDE74F
:1002600070B500F091F809B902780FE0042908BFD1
:1002700042780BD0082908BF827807D00C2908BF24
:10028000C27803D010290CBF02794279012A01D02B
:10029000012070BD11B90222027014E0042902D1BC
:1002A000022242700FE0082902D1022282700AE085
:1002B0000C2902D10222C27005E0102907BF0222D8
:1002C00002710223437100F044F800F04BF818BFAC
:1002D000904208D088421FBFDFF8B850A842DFF82C
:1002E000B860B04201D100F01FF824689C4218BFEA
:1002F000B4F1804F0BD000F024F81CBF1E4B9C4281
:1003000005D000F01BF81CBF94428C4208D100F0CD
:1003100010F818BFB1F5803F04D000F01EF801E0DE
:1003200000F012F8002070BD456C45F400454564AE
:100330007047A16816480140062970470F4884425B
:1003400070470C4884427047216841F001012160E8
:1003500070472068012200F094BB206840F0010043
:10036000206070472068024B054A06499842704752
:10037000002C01400004004000080040000C004038
:100380000034014000400140044604F13E00704743
:10039000070001000044014000480140002129708D
:1003A0002046704704F13C056878704710B5044654
:1003B000206801698A0715D5C1688A0712D56FF0D0
:1003C0000201016101222277806910F0030F2046AB
:1003D00002D000F0FAFB03E000F0F8FB00F094F824
:1003E00000202077206801694A0715D5C1684A07AF
:1003F00012D56FF00401016102222277806910F4A6
:10040000407F204602D000F0E0FB03E000F0DEFB7E
:1004100000F07AF800202077206801690A0715D5D6
:10042000C1680A0712D56FF0080101610422227722
:10043000C06910F0030F204602D000F0C6FB03E0B5
:1004400000F0C4FB00F060F800202077206801690C
:10045000CA0615D5C168CA0612D56FF01001016130
:1004600008222277C06910F4407F204602D000F0B5
:10047000ACFB03E000F0AAFB00F046F80020207778
:1004800020680169CA0708D5C168CA0705D56FF099
:1004900001010161204600F074FD206801690A062F
:1004A00008D5C1680A0605D56FF0800101612046B4
:1004B00000F07EFD20680169CA0508D5C1680A06FA
:1004C00005D56FF480710161204600F072FD20684F
:1004D00001694A0608D5C1684A0605D56FF0400192
:1004E0000161204600F066FD206801698A060AD590
:1004F000C1688A0607D56FF0200101612046BDE87A
:10050000104000F058BD10BD204600F055BD38B574
:1005100000F07EF801D1022032BD012084F83C00B9
:1005200052B1042A19D0082A29D00C2A38D0102A0E
:1005300048D0142A57D067E0206800F023F92168DA
:10054000886940F008008861886920F004008861AB
:100550008A69286902438A6156E0206800F053F9ED
:100560002068816941F400618161816921F48061C1
:10057000816181692A6941EA0221816144E0206840
:1005800000F07AF92168C86940F00800C861C869BC
:1005900020F00400C861CA6928690243CA6133E0D7
:1005A000206800F0A1F92068C16941F40061C161CF
:1005B000C16921F48061C161C1692A6941EA0221EE
:1005C000C16121E0206800F0B6F92168486D40F073
:1005D00008004865486D20F0040048654A6D2869A8
:1005E00002434A6510E0206800F0CFF92068416DB1
:1005F00041F400614165416D21F480614165416DC7
:100600002A6941EA02214165002084F83C0032BD9C
:1006100004460D4694F83C000128704738B500F0B8
:100620004FF801D1022032BD0120207002226270F9
:10063000DFF8B4032A6893680340936008680200F7
:1006400018BF10282DD0202818BF302829D04028C6
:1006500023D0502816D0602818D0702803D0B0F5C9
:10066000005F07D021E000F026F82868816841F09B
:10067000770105E000F01FF82868816841F48041A7
:10068000816012E000F013F850210BE0CA6849685D
:10069000286800F0D2F9602104E000F008F8402159
:1006A00000E00146286800F0DAF90FE00000CA68AF
:1006B00049682868B2E1CB684A6889682868D6E149
:1006C000054605F13C042078012870470120607040
:1006D00000212170002032BD2DE9F043DFF80C73BA
:1006E000D0F800C0DFF80833DFF80843DFF808531C
:1006F000DFF80863DFF808E3DFF80883DFF8089322
:10070000B84218BFB0F1804F07D0484518BF4045E8
:1007100003D0704518BFB0420ED14A68B8422CF0E1
:10072000700C18BFB0F1804F42EA0C0C0CD0484559
:100730001CBF4045704507D0B04218BFA84203D047
:10074000A04218BF984204D1CA682CF4407C42EA07
:100750000C0C4A692CF0800C42EA0C020260B84290
:100760008A68C26218BFB0420A68826204D0A84296
:100770001CBFA042984201D1096901630122426174
:10078000BDE8F0832DE9F041026ADFF86082DFF80E
:100790006CE2DFF86072DFF860C252085200026259
:1007A000066A44688569DFF864220B6826F0020651
:1007B00015408A6816431D43404518BF70458C4B51
:1007C00004D060451CBFB84298420DD1CA6826F0DB
:1007D00008061643404518BF704526F0040605D0AC
:1007E000604518BFB84201D0984205D14B698A696B
:1007F00024F440741C431443446085614968416398
:100800000662BDE8F081F0B5026A22F010020262D1
:10081000056A436884697E4A0E6814408A6844EA1F
:10082000062425F0200545EA0215704E734AB042B1
:1008300018BF904208D1CF6825F0800545EA07151A
:10084000B04225F040050AD090421CBF6A4A90424F
:1008500005D0684EB0421CBF654A904206D14E6931
:100860008A6923F44063164343EA86034360846144
:10087000496881630562F0BDF0B5026A634B22F4FA
:1008800080720262066A4468C5690A6826F40076C6
:100890001D408B6846EA03261543544B574A98423D
:1008A00018BF904208D1CF6826F4006646EA0726B2
:1008B000984226F480660AD090421CBF4E4A90426D
:1008C00005D04C4B98421CBF494A904206D14B6917
:1008D0008A6924F44054134344EA03144460C56114
:1008E0004968C1630662F0BD70B5026A22F48052A5
:1008F0000262036A4468C569454A00F06DF823F452
:10090000005343EA0233B0421CBF3C4A904207D036
:10091000394EB0421FBF374A9042354EB04204D1E3
:100920004A6924F4804444EA82144460C5614968F9
:100930000164036270BD70B5026A364B22F48032E6
:100940000262046A4568466D0A681E4016438B6859
:10095000264A24F4003444EA034490421CBF274B47
:10096000984207D0244A90421FBF224B9842204A07
:10097000904204D14A6925F4803545EA0225456054
:10098000466549688165046270BD70B5026A22F4EB
:1009900080120262036A4468456D1F4A00F01CF829
:1009A00023F4001343EA0253B0421CBF134A90429F
:1009B00007D0114EB0421FBF0E4A90420C4EB042BB
:1009C00004D14A6924F4802444EA822444604565C1
:1009D0004968C165036270BD0E68154045EA062589
:1009E0008A68024E704700008800FEFF002C01401C
:1009F00000480140004401400040014000340140F3
:100A0000000C004000080040000400408CFFFEFF86
:100A1000FF8CFFFE8FFFFEFFFF8FFFFE10B5036A06
:100A2000046A64086400046223F00A03846924F001
:100A3000F00444EA021484612EE010B5036A23F046
:100A4000100303628369046A23F4704343EA0233A8
:100A500024F0A004836144EA0114046210BD82689A
:100A600022F07002114341F007018160704710B518
:100A7000846824F47F442143114341EA03218160C7
:100A800010BD10B501F01F01036A01248C40A3437F
:100A9000036202FA01F1036A1943016210BD30B426
:100AA000002513E050F8042BD30744BFA9F101033C
:100AB0009A18091F042942F8045BFAD213468C07DE
:100AC00044BF15809B1CC90748BF1D7050F8041B0C
:100AD0000029E7D130BC7047374881B0816841F0C8
:100AE00001018160816801F00101009100990268B3
:100AF00042F080520260006800F080500090009840
:100B000001B0704781B000682B49B0F1804F08D127
:100B1000086840F001000860096801F001010091D7
:100B20000AE0264A904208D1886840F48030886004
:100B3000886800F480300090009801B0704710B5CC
:100B400086B0044614220021684600F036FA206878
:100B50001B49B0F1804F10D1086840F001000860D7
:100B60000222096801F0010105912021059800F099
:100B70001DF84FF09040012112E0104A904213D12D
:100B8000086840F0020008600222096801F00201D2
:100B900005914FF4804105980A4800F007F80E21AE
:100BA0000491694600F014FA06B010BD009101925C
:100BB000002102910391704758100240004001400B
:100BC0004C1002400004004870477047704730B432
:100BD0000EE00268436802440830DC0744BFA9F114
:100BE0000104E31852F8045B43F8045B091FF9D1D0
:100BF00050F8041B0029ECD130BC70472DE9F847B0
:100C000099B000F0DFFA00F05AF91422002101A88F
:100C100000F0D3F9DFF87803DFF87863016841F07A
:100C2000040101600024026802F0040200924FF403
:100C300000580099026842F0010202604FF4FA691C
:100C4000036803F001030093002500990268D2496C
:100C500042F002020260006800F00200009000987A
:100C6000CE480291CDF80480039401A900F0B0F9B8
:100C700000220021282000F0CFFA282000F0EAFA14
:100C800000F013F900F016F900F00AF94FF0804077
:100C900070609F21B160F460C6F810907461F461D7
:100CA000301DFFF771FA08B100F080F94FF4805A57
:100CB000CDF828A00AA9301DFFF7B0FC08B100F05C
:100CC00075F9301DFFF7BFFA08B100F06FF9009415
:100CD00002946946301D00F0D3FA08B100F066F9BD
:100CE00060210391002204920592079203A9301D0E
:100CF000FFF70DFC08B100F059F9301DFFF71FFF99
:100D000000F0D3F800F0D6F800F0CAF82C22002149
:100D10000EA800F052F9A24FA24838609F217960D6
:100D2000BC60C7F80C903C617C61BC613846FFF741
:100D30002BFA08B100F03AF9CDF828A00AA93846F4
:100D4000FFF76CFC08B100F031F93846FFF77BFA89
:100D500008B100F02BF9009402946946384600F07F
:100D60008FFA08B100F022F960200390002205926A
:100D70000792099204940694089403A93846FFF751
:100D8000C6FB08B100F012F90E940F941094119460
:100D90001294CDF84C8018940EA9384600F0ADFAA4
:100DA00008B100F003F93846FFF7C9FE0021301DF5
:100DB000FFF756FA00213846FFF752FA4FF4FA705F
:100DC00000F0B8F84FF4FA7000F0C4F808E0002022
:100DD00000F0B0F8002000F0BDF80A2000F0DCFAC6
:100DE0003288052A04F11400A4F11401F8D8DFE8D0
:100DF00002F004050A1D2E41F2E7E8E7484600F03C
:100E000099F84846E7E7002000F094F8002000F049
:100E1000A1F84FF47A7000F0BFFA484600F08AF863
:100E2000484600F097F84FF47A70D7E7002000F0BA
:100E300081F8002000F08EF8FA2000F0ADFA484664
:100E400000F078F8484600F085F8FA20C6E72A0056
:100E500004D00C46A0B240B9002506E0044680B29A
:100E6000B0F5FA6FA4BF4C460125A0B200F062F8BD
:100E7000A0B2B0E72A0004D00C46A0B240B90025C9
:100E800006E0044680B2B0F5FA6FA4BF4C460125D7
:100E9000A0B200F04FF8A0B200F05CF802209DE78D
:100EA0001C22002103A800F088B8102200210AA803
:100EB00000F083B80C220021684600F07EB880B5AF
:100EC00096B04422002105A800F077F81422FFF71D
:100ED000F2FF4FF4007000F079FA08B100F066F804
:100EE00002214FF48072059108921021002209918D
:100EF0000F9205A800F0A6FA08B172B6FEE701212C
:100F000001910F200090002200210292039104928F
:100F1000684600F0CCFC08B172B6FEE717B000BD21
:100F20001C480188491C01800288062AA4BF0021B0
:100F30000180704718B587B06022009201900022AE
:100F4000029204926946134C201DFFF7E0FA00213B
:100F5000201D12E018B587B0602201900092002099
:100F600002900022049006900392059269460C4C70
:100F70002046FFF7CCFA00212046FFF771F908B0B0
:100F800010BD00680849884208BF00F0E5BD704701
:100F90004C10024010000020000011100008004812
:100FA00060000020004001400048014072B6FEE7AA
:100FB0007047704770477047704710B50446104639
:100FC0000A460146204600F0CFFD204610BD000035
:100FD0002DE9F84F4FF00009704A714B4FF00F08A0
:100FE00005460E4634E06F4CA54214BF0724062484
:100FF0008C406D493C4341F82C40C143146801EAE0
:10100000040C7468E40348BF40EA0C0CC2F800C04A
:10101000546801EA040C7468A40348BF40EA0C0C4D
:10102000C2F804C0946801EA040C7468E40248BF82
:1010300040EA0C0CC2F808C0D46801EA040C7168DC
:10104000890248BF40EA0C0CC2F80CC009F1010942
:10105000316831FA09F000F09780012404FA09F4AC
:1010600014EA0100F2D04FEA490C032101FA0CF115
:101070006FEA010E7168E443012918BF022903D009
:10108000112918BF122910D1A968F7680EEA0101C9
:1010900007FA0CF73943A96069687768C7F3001746
:1010A000214007FA09F739436960716801F00307C5
:1010B000032F07D1EF6AC1F3C0013C4001FA09F1E7
:1010C0000C43EC62E968B4680EEA010104FA0CF41E
:1010D0002143E9604FEA89017468022C18BF122C81
:1010E00012D14FEAD90405EB840401F01C07D4F8AF
:1010F00020A008FA07FB2AEA0B0AD6F810B00BFA70
:1011000007F747EA0A0727622C680EEA04073479D2
:1011100004F0030404FA0CF43C432C607468E4000B
:1011200094D51C6844F001041C604FEA990C1C68BB
:1011300004F00104009401F00C01009C1A4C54F8D6
:101140002C4008FA01F724EA0707B5F1904F08BFD1
:10115000002418D0154CA54208BF012413D0144C0C
:10116000A54208BF02240ED0124CA54208BF03249A
:1011700009D0114CA54208BF042404D00F4CA5424D
:101180007FF431AF052433E7BDE8F18F0C4A1368D3
:1011900003421CBF1060FFF7C3BE7047000401404C
:1011A0006010024000180048080001400004004898
:1011B00000080048000C00480010004800140048D7
:1011C00014040140032010B500F019F80F2000F0BE
:1011D000FFFC0024002814BF0124FFF77DFC2046FB
:1011E00010BD00000901020002D42048815470475C
:1011F0001F4B02F00F021A4402F8041C70471D4BEB
:1012000019684FF6FF020002114000F4E060084345
:10121000194908431860704770B5164B1C68C4F331
:1012200002230124C3F10705052D2EBF0F2504FA63
:1012300005F56D1E1E1D072E34BF0023DB1E294041
:10124000994004FA03F3BDE870405B1E1A40114355
:10125000C8E70000010007D4012200F01F01074B7E
:101260008A40400943F820207047000000E400E075
:1012700018ED00E00CED00E00000FA0500E100E0F0
:10128000F0B500F13C042278012A01D10220F0BD22
:1012900001222270022363700668DFF8ECE07768B1
:1012A000DFF8E8C0B568764518BF664503D14B68DE
:1012B00027F470071F430A6827F070071743776009
:1012C0000268724518BFB2F1804F0CD02D4882429F
:1012D0001CBF2F4B9A4206D0294882421EBF62454E
:1012E0002C4B9A4204D1886825F08005054395600F
:1012F0000121617000202070F0BD30B590F83C20D5
:10130000012A01D1022030BD012280F83C20CC68A6
:101310008B684A6824F440741C4324F480641443AA
:101320000B680A6924F400641C4324F480541443B9
:101330004B698A6A24F400541C4324F48044144307
:101340008B69114A24F4702444EA034403689342ED
:101350001CBF0E4DAB420CD14A6A24F4700444EA1F
:101360000254CA69096A24F08074144324F000749A
:101370000C435C64002280F83C20002030BD00005B
:10138000000C004000040040002C014000340140EB
:10139000000800400040014038B5044600F054FC0D
:1013A00014F1010F054602D004480178641800F0DA
:1013B0004BFC401BA042FAD331BD00BF000000200F
:1013C000DFF87400006800F4C060704710B5DFF803
:1013D0006810B0F5007F086800F4C06019D1B0F55E
:1013E000007F1FD00868DFF85420DFF8544020F455
:1013F000C06040F4007000F017F800E0401E4A6939
:10140000530501D50028F9D1486941050AD50320C3
:1014100010BDB0F5806F05D0086820F4C06040F4BE
:1014200080600860002010BD0860322013684343CC
:10143000B3FBF4F0401C7047007000400C0000202B
:1014400040420F002DE9FC47050065D0DFF8C87663
:10145000DFF8D466BC68F86800F003082878C10695
:1014600004F00C0448D524B10C2C08BFB8F1010FCE
:101470002CD13868810702D5A86900284CD039687A
:1014800008074EBF396871680909286A01F0F00140
:10149000814206D200F005FB00283DD100F0F5F9AD
:1014A00007E000F0F2F924B9286A00F0FAFA0028FF
:1014B00032D100F086FABA6800F079FADFF86006F7
:1014C000006800F085FB010016D0D8E1A86928B3B8
:1014D000396841F00101396000F0B6FB8146386897
:1014E000810707D400F0B0FBA0EB09000328F6D376
:1014F0000320C4E100F0C9F92878C10756D5082CAB
:1015000004D00C2C08BFB8F1030F18D13868810340
:101510004CD56868002849D10120B0E138684008FE
:101520004000386000F090FB814638688107E3D5C1
:1015300000F08AFBA0EB09000328F6D3D8E768681F
:10154000B0F5803F04D1386840F48030386011E055
:10155000B0F5A02F386806D140F480203860396893
:1015600041F4803105E020F480303860396821F49E
:1015700080213960686860B100F066FB8146386898
:10158000810313D400F060FBA0EB09006528F6D3BB
:10159000AEE700F059FB81463868810306D500F0BC
:1015A00053FBA0EB09006528F6D3A1E72878810753
:1015B00013D5042C04D00C2C08BFB8F1020F22D193
:1015C0003868410502D5E8680028A5D078682969FF
:1015D00020F0F85040EA016078602878010743D590
:1015E00068690028706830D040F00100706000F039
:1015F0002BFB80467068810736D400F025FB00F095
:1016000040F9F7D374E7E86878B1396841F480713C
:10161000396000F019FB804638684105D6D400F0E7
:1016200013FB00F02EF9F7D362E7386820F48070DE
:10163000386000F009FB804638684105CDD500F0E0
:1016400003FB00F01EF9F7D352E74008400070603A
:1016500000F0FAFA80467068810705D500F0F4FAC8
:1016600000F00FF9F7D343E72878410767D5B86D45
:10167000C1004FF000080AD4B86D40F08050B86542
:101680004FF00108B86D00F0805000900098DFF82E
:101690009C94D9F80000C10513D4D9F8000040F497
:1016A0008070C9F8000000F0CFFA8246D9F8000037
:1016B000C10506D400F0C8FAA0EB0A000328F5D350
:1016C00016E7A868012804D1306840F001003060B6
:1016D00010E00528306806D140F004003060316821
:1016E00041F0010105E0400840003060316821F020
:1016F00004013160A86841F2893960B100F0A4FAB0
:1017000082463068810713D400F09EFAA0EB0A00ED
:101710004845F6D3ECE600F097FA82463068810738
:1017200006D500F091FAA0EB0A004845F6D3DFE6B3
:10173000B8F1000F03D0B86D20F08050B865A86AEA
:10174000002800F09B80022878D1F868EA6A00F04F
:101750000301914201BF00F070012A6B521EB1EBF0
:10176000021F1ED16A6B00F4FE41B1EB022F18D1AB
:10177000A96B07290CBF0021012100F400328A4225
:101780000FD1EA6B520800F4C001521EB1EB425F68
:1017900007D1296C490800F0C060491EB0EB416FC9
:1017A00048D00C2C4BD03868410101D43868C100B6
:1017B0003FF5B2AE386820F08070386000F044FA2F
:1017C00004463868810105D500F03EFA001B032865
:1017D000F7D38DE6F868DFF85813EA6A0840296BFA
:1017E0001043491E40EA0110EA6B696B520840EA57
:1017F0000120296C521E490840EA4250491E40EA25
:101800004160A96B090940EA4140F860386840F03E
:1018100080703860F96841F08071F96000F014FA66
:1018200004463868810129D400F00EFA001B032811
:10183000F7D35DE63868810120D4E7E70C2C3FF44C
:101840006BAE386820F080703860396811F0205F26
:1018500003D1F86880088000F860F968DFF8D402E6
:101860000140F96000F0F0F904463868810105D5BF
:1018700000F0EAF9001B0328F7D339E60020BDE8A1
:10188000F687A0EB080003287047386840F008008E
:1018900038603968286A21F0F001014339607968BD
:1018A000E86921F47F4141EA0021796070472DE920
:1018B000F0410400884658D0DFF87C62306800F0C0
:1018C0000700404509D23168C90848EAC1013160C2
:1018D000306800F00700404547D12078DFF83852E3
:1018E000C1072AD56068032802D129688A0108E067
:1018F000022802D129688A0303E00028296802D15E
:101900008A0702D431E04A052FD5A968890840EA40
:101910008100A86000F098F90746A868616800F0A7
:101920000C00B0EB810F08D000F08EF9C01B41F223
:1019300089318842F1D3032037E02078810705D52B
:10194000AA68A06822F0F0020243AA60316801F0A0
:10195000070188450BD23068C00848EAC0003060F3
:10196000316801F00701414501D001201DE02078D8
:10197000410705D5AA68E06822F4E0620243AA6044
:101980002178080706D5A968206921F4605141EA49
:10199000C001A96000F015F8AA6800F008F8BDE8D9
:1019A000F0415F48006800F013B9BDE8F081634979
:1019B000C2F30312895C594A01F01F01C84010604C
:1019C000704770B5544A5F4B9068D6680025002177
:1019D00010F00C0006F003065B4C03D00C2812D16B
:1019E000012E1AD115682E0704D44E4D2E68C6F369
:1019F000032502E01568C5F30315544E56F825502B
:101A000048B9294624E0042808BF214620D00828E8
:101A10001ED119461CE00C281AD1D06800F0030032
:101A2000022803D0032808BF1D4600E02546D168E0
:101A3000D068D268C0F306204543C1F30210C2F358
:101A40004161401C491CB5FBF0F04900B0FBF1F1CD
:101A5000084670BD31483A4A006813683C49C3F3F0
:101A6000C222895C01F01F01C840704710B50F22E7
:101A70000260334A136803F003034360146804F000
:101A8000F0048460136803F4E063C3601268D20852
:101A900002F4E06202612848026802F007020A606C
:101AA00010BD7CB52B4E054630680024C10002D520
:101AB000FFF786FC0EE0306840F0805030603168FF
:101AC00001F0805100910098FFF77AFC316821F015
:101AD00080513160B0F5007F04D1802D0CD9A12D4B
:101AE00009D304E0802D88BF032405D801D1022446
:101AF00002E0702D00D101240F480168C90844EAB2
:101B0000C1010160006800F00700A04201D001207F
:101B100076BD002076BD0000001002400C000020C1
:101B20000800002094100240901002400070004015
:101B30008C809DF9FFFFEEFE00200240941C0008FF
:101B40000810024000127A000024F400A41C0008CF
:101B5000DC1D0008581002400248416802788A18CB
:101B6000426070470000002062F30F2262F31F42C0
:101B7000401810F0030308D0C91A1FD3DB0748BF71
:101B800000F8012D28BF20F8022D130030B41446B0
:101B90001546103928BF20E93C00FAD8490728BF6C
:101BA00020E90C0048BF40F8042D890028BF20F828
:101BB000022D48BF00F8012D30BC7047C91818BF6E
:101BC00000F8012DCB0728BF00F8012D7047000059
:101BD00018B5014687B000221A20FFF71DFB1A2016
:101BE000FFF738FB1448154C016841F4802101606F
:101BF00001A9006800F480200090009802A8FFF777
:101C000035FFFFF727FF0E490E4B2160B0FBF3F0C5
:101C1000401E40F2E73260600021E2602161A16075
:101C20002046FEF7B1FA18B92046FEF7BAFA00E0EE
:101C3000012008B010BD000060100240AC00002080
:101C40000048014040420F0001484068704700BF13
:101C5000000000200C48016841F47001016000227E
:101C60000A49086840F0010008608A604FF4805219
:101C70000B68074803400B60CA6000200B6823F420
:101C800080230B608861704788ED00E000100240FF
:101C9000FFFFF6EA0000000000000000010203045C
:101CA00006070809A0860100400D0300801A0600FF
:101CB00000350C0040420F0080841E0000093D00EA
:101CC00000127A000024F40000366E010048E8019A
:101CD000006CDC0210B5074979441831064C7C448D
:101CE000163404E00A68081D114488470146A142E1
:101CF000F8D110BD5000000070000000FEE7FEE7C4
:101D0000FEE7FEE7FEE770477047704770470148FF
:101D1000FEF74CBBAC0000204FF40050FFF736BA82
:101D20004EF68851CEF20001086840F47000086059
:101D3000BFF34F8FBFF36F8F4FF00070E1EE100ACB
:101D4000704700005BEDFFFFE8000000100000207E
:101D5000000000007BEEFFFF1000000064000000A8
:101D6000000000200000000000F00DF8002801D065
:101D7000FFF7B0FFAFF300800020AFF30080FEF765
:101D80003DFF00F002F80120704700F001B80000AC
:101D90000746384600F002F8FBE7000080B5AFF3D5
:101DA0000080024A11001820ABBEFBE726000200AB
:101DB0000148804701480047551C0008D11D000814
:101DC00001000000000000001000000000093D00BC
:101DD000AFF30080FFF7A4FFFFF7C6FF000000008D
:101DE00001020304FFF7FEBFFFF7FEBFFFF7FEBFD0
:101DF000FFF7FEBFFFF7FEBFFFF7FEBFFFF7FEBF17
:101E0000FFF7FEBFFFF7FEBFFFF7FEBFFFF7FEBF06
:101E1000FFF7FEBFFFF7FEBFFFF7FEBFFFF7FEBFF6
:101E2000FFF7FEBFFFF7FEBFFFF7FEBFFFF7FEBFE6
:101E3000FFF7FEBFFFF7FEBFFFF7FEBFFFF7FEBFD6
:101E4000FFF7FEBFFFF7FEBFFFF7FEBFFFF7FEBFC6
:101E5000FFF7FEBFFFF7FEBFFFF7FEBFFFF7FEBFB6
:101E6000FFF7FEBFFFF7FEBFFFF7FEBFFFF7FEBFA6
:101E7000FFF7FEBFFFF7FEBFFFF7FEBFFFF7FEBF96
:101E8000FFF7FEBFFFF7FEBFFFF7FEBFFFF7FEBF86
:101E9000FFF7FEBFFFF7FEBFFFF7FEBFFFF7FEBF76
:101EA000FFF7FEBFFFF7FEBFFFF7FEBFFFF7FEBF66
:101EB000FFF7FEBFFFF7FEBFFFF7FEBFFFF7FEBF56
:101EC000FFF7FEBFFFF7FEBFFFF7FEBFFFF7FEBF46
:101ED000FFF7FEBFFFF7FEBFFFF7FEBFFFF7FEBF36
:101EE000FFF7FEBFFFF7FEBFFFF7FEBFFFF7FEBF26
:101EF000FFF7FEBFFFF7FEBFFFF7FEBFFFF7FEBF16
:101F0000FFF7FEBFFFF7FEBFFFF7FEBFFFF7FEBF05
:0C1F1000FFF7FEBFFFF7FEBFFFF7FEBFAC
:0400000508001DD101
:00000001FF
